:020000040000FA
:1000000058180020F901000001020000DF02000082
:1000100005020000070200000902000000000000C5
:100020000000000000000000000000000B020000C3
:100030000D020000000000006902000099090100A3
:10004000130200001302000013020000130200005C
:10005000BD530000CD5300001302000019550000ED
:1000600013020000315500001302000013020000CB
:100070001302000049550000130200006155000002
:100080001302000079550000130200009155000092
:1000900013020000A9550000130200001302000023
:1000A00013020000130200001302000013020000FC
:1000B00013020000130200001302000013020000EC
:1000C000512B000013020000130200001302000075
:1000D000130200001302000005100000B110000020
:1000E000130200005D11000009120000B5120000AB
:1000F000611300000D140000130200001302000041
:1001000000F002F800F068F80AA090E8000C8244C1
:100110008344AAF10107DA4501D100F05DF8AFF29E
:10012000090EBAE80F0013F0010F18BFFB1A43F0D5
:1001300001031847743B0300A43B03000A444FF03B
:10014000000C10F8013B13F0070408BF10F8014B36
:100150001D1108BF10F8015B641E05D010F8016B7B
:10016000641E01F8016BF9D113F0080F1EBF10F8DF
:10017000014BAD1C0C1B09D16D1E58BF01F801CB02
:10018000FAD505E014F8016B01F8016B6D1EF9D585
:100190009142D6D37047000000230024002500269A
:1001A000103A28BF78C1FBD8520728BF30C148BFDA
:1001B0000B607047642900F0F780002070471FB57E
:1001C00000F0AEFB04000020002131F03BFF401C9A
:1001D00060601FBD10B510BD00F0D7FE1146FFF7DF
:1001E000EEFF1BF047F900F0F5FE03B4FFF7F2FF56
:1001F00003BC00F0F9FE00000948804709480047A9
:10020000FEE7FEE7FEE7FEE7FEE7FEE7FEE7FEE7C6
:10021000FEE7FEE704480549034A054B7047000026
:10022000AD090100010100005814002058180020F9
:1002300058140020EFF311804FF0400181F3118832
:10024000704780F3118870472A4A1368012B04D045
:100250004FF001031360284A1060284A11602848B3
:100260004FF0805101607047EFF3108272B6214861
:10027000016891B14FF0000101601F48016829B188
:10028000EFF3098121E9F00F006801601B4909685B
:100290000968B1E8F00F81F3098882F310884EF005
:1002A000040E70471549086013494FF000000860BC
:1002B00010494FF00100086012484FF47F01D0F858
:1002C000002041EA020101600D484FF080510160B9
:1002D00062B64FF0000080F31188704700BFEFF363
:1002E000098000B51FF0C4FC5DF804EB4EF0040E6D
:1002F000704700BFC004FF1FB804FF1FBC04FF1FEE
:1003000004ED00E020ED00E010B500F009FB001D59
:1003100010BD00BF311D03000FB41CB5074B06AA6A
:100320007B4469460090059800F061FB0020694617
:1003300000F070FB1CBC5DF814FB0000F10600002F
:100340002DE9F0410E460446002020622046E16877
:10035000884730B3252805D0D4E901219047206A89
:10036000401CF2E7E168204600278847050018D0C6
:10037000A5F14100192802D820354FF40067324614
:10038000294620462760FFF715FF40B1012804D019
:10039000F61D26F007060836D8E7361DD6E72846AC
:1003A000DAE7206ABDE8F0812DE9F0410646002435
:1003B00010687529314616A510D0AFF300800028CB
:1003C00002DA404213A507E031688A0701D512A579
:1003D00002E0490704D511A5012401E0AFF3008034
:1003E00000210A2206F1240709E0B0FBF2FCB0FB71
:1003F000F2F302FB1C00303078541846491C0028E8
:10040000F3D123462A463046BDE8F04100F090BAC9
:10041000000000002D0000002B0000002000000064
:100420000FB400B58DB010A9099000910B904FF05A
:10043000FF300A9000200C90064878440690064849
:1004400078446A4607900F9909A800F0FDFA0DB0AC
:100450005DF814FB2B060000430600002DE9FF5F4A
:100460001D464FF0FF3B91464FF000085F46D5E92F
:100470000146A96901987F1C8847296A82468847F6
:100480000028F6D1BAF1FF3F0CD0002E24F4C0644E
:1004900019DD600614D5BAF12B0F09D0BAF12D0F72
:1004A0000ED103E0584604B0BDE8F09F44F48064E8
:1004B000A96901987F1C8847761E8246002E02DDBE
:1004C000BAF1300F03D0B9F1000F26D032E0A9699C
:1004D000761E01987F1C44F400748847002E8246E3
:1004E00005DDBAF1780F06D0BAF1580F03D0B9F193
:1004F000000F10D01EE0B9F1000F02D0B9F1100FBB
:1005000018D1A969761E01987F1C24F400748847CD
:100510008246102002E0082000E00A20814609E01F
:10052000A96908FB0908761E01987F1C44F4007431
:1005300088478246002E05DD4946504600F06FFA96
:100540000028EDDAE96901988847A00502D46FF028
:100550000100A8E7E00725D1600613D5600502D5A4
:10056000C8F1000000E0404629680A1D2A600968B9
:10057000220501D5087015E0220701D5088011E099
:1005800008600FE02868011D29600068210502D578
:1005900080F8008006E0210702D5A0F8008001E085
:1005A000C0F8008038467EE770B5064600F0BCF91A
:1005B0000468054630460A22002100F075FA2C60D6
:1005C00070BD00F0A9BA30B503461D781DB10A46CA
:1005D00003E0AC4201D1181A30BD12F8014B002CD7
:1005E000F7D15B1CF1E730B503461D783DB10A46F3
:1005F00012F8014B1CB1AC42FAD15B1CF5E7181A9A
:1006000030BD30B505460B462A4613F8014B12F8AB
:10061000010B08B1A042F8D01CB1002802D06D1C1B
:10062000F1E7284630BD40EA0103024630B59B079A
:1006300010D14FF0013400E008C208C91D1B9D43D2
:1006400015EAC41FF8D013F0FF0102F8011B0DD00A
:100650001B0AF8E711F8013B002B02F8013B05D01B
:1006600011F8013B002B02F8013BF3D130BD10B56E
:10067000431C02E010F8011B71B18107FAD14FF061
:10068000013202C88C1A8C4314EAC211F9D0C01A84
:100690000A0603D0C01E10BDC01A10BD0A0401D046
:1006A000801E10BD0902FCD0401E10BD40EA0103AF
:1006B00070B59B072ED14FF00136042A2AD308C803
:1006C00010C99D1B9D43121F15EAC61517D0D8B23D
:1006D000E1B2401A50EA056110D198B2A1B2401AB5
:1006E00050EA05410AD123F07F4024F07F41401AAF
:1006F00050EA052102D1180EA0EB146070BDA34290
:10070000DBD018BA21BA884201D9012070BD4FF060
:10071000FF3070BD0AB9002070BD10F8013B11F820
:10072000014B63B1A3420AD1521E08D010F8013B1D
:1007300011F8014B1BB1A34201D1521EEDD1181B80
:1007400070BD032A40F2308010F0030C00F01580D9
:1007500011F8013BBCF1020F624498BF11F801CBC4
:1007600000F8013B38BF11F8013BA2F1040298BF29
:1007700000F801CB38BF00F8013B11F0030300F093
:100780002580083AC0F0088051F8043B083A51F837
:1007900004CBA0E80810F5E7121D5CBF51F8043B3C
:1007A00040F8043BAFF30080D20724BF11F8013BAF
:1007B00011F801CB48BF11F8012B24BF00F8013B11
:1007C00000F801CB48BF00F8012B704710B5203A64
:1007D000C0F00B80B1E81850203AA0E81850B1E8FA
:1007E0001850A0E81850BFF4F5AF5FEA027C24BFB0
:1007F000B1E81850A0E8185044BF18C918C0BDE8A7
:1008000010405FEA827C24BF51F8043B40F8043B6F
:1008100008BF7047D20728BF31F8023B48BF11F824
:10082000012B28BF20F8023B48BF00F8012B70477E
:100830004FF000020429C0F0128010F0030C00F009
:100840001B80CCF1040CBCF1020F18BF00F8012B87
:10085000A8BF20F8022BA1EB0C0100F00DB85FEA55
:10086000C17C24BF00F8012B00F8012B48BF00F821
:10087000012B70474FF0000200B513469446964690
:10088000203922BFA0E80C50A0E80C50B1F12001A3
:10089000BFF4F7AF090728BFA0E80C5048BF0CC051
:1008A0005DF804EB890028BF40F8042B08BF7047AF
:1008B00048BF20F8022B11F0804F18BF00F8012B21
:1008C000704710B5044610F0030F08BF11F0030F76
:1008D00040F015804FF0013E121FC0F20E8051F81B
:1008E000043BA3EB0E0C2CEA030C1CEACE1C08BF45
:1008F00040F8043BF0D0A1F1040102F10402521EC1
:1009000008DB11F8013B002B00F8013BF7D1114641
:10091000FFF78EFF204610BD704770477047704745
:10092000004870471414002000487047F41300205A
:100930002DE9F0470D4699469246044600F12408F9
:100940000168880604D5E06921F01001216000E00B
:100950000120A84201DD471B00E00027A1697A19A8
:1009600002EB0900081AA0612078C00602D42046D4
:10097000AFF30080002608E0D4E901211AF8060050
:100980009047206A401C761C20624E45F4DB20789C
:10099000C0060AD52046AFF3008006E0D4E9012165
:1009A00030209047206A401C2062381EA7F10107C2
:1009B000F4DC07E0D4E9012118F805009047206A2B
:1009C000401C2062281EA5F10105F3DC2046AFF390
:1009D00000802078000602D50220BDE8F0870120C3
:1009E000FBE7000001694A1C02610878704700B506
:1009F0008FB0CDE901310021059105497944CDE958
:100A0000031011466846FFF79BFC0FB000BD0000C5
:100A1000E5FFFFFF0A6802F8010B0A6070473A28F9
:100A200000D2303820F02002412A01D3A2F1370051
:100A3000884201D34FF0FF30704700000268114434
:100A40001378016018467047D160054979445161B7
:100A500004497944116200211161114600F08CB8FB
:100A6000EDFFFFFF0F010000426842B1016811F87D
:100A7000013B23B1521EC0E9001218467047012104
:100A8000C160881E704742685AB1C368016843B9A3
:100A900083688B4205D0491E521CC0E90012002019
:100AA00070474FF0FF3070472DE9F04791460F46F1
:100AB00080460446002614F8015B2DB1FFF724FCA4
:100AC0000068405DC007F6D12B2D02D02D2D18D027
:100AD000641E4A463946204600F008FA27B13968B4
:100AE000A14201D1C7F800804FF0020471050BD577
:100AF0004042002803DDFFF717FF0460A007BDE8B0
:100B0000F08746F48066E4E70028F8DAFFF70CFF88
:100B100004606FF00040F2E72DE9F04115460E4603
:100B2000040002D12C6804B90BA42046FFF75BFD3A
:100B30000444207870B1274631463846FFF743FD1C
:100B40000444207810B1002004F8010B38462C60D2
:100B5000BDE8F0810027F9E7000000000048704779
:100B6000F413002010B50446FFF7CEFB0068005DCB
:100B700000F0010010BD00002DE9F34F4FF0000A16
:100B80000C4656468DB001200C9001F10C000B90E4
:100B900062690B9801219047051E2DD0252D2CD080
:100BA000216A8847C0B162690B9801219047216A88
:100BB00088470028F7D16269411E0B98904700E0F2
:100BC000761CA1690D988847216A88470028F7D1CB
:100BD000E1690D988847DBE7A1690D988847A8422D
:100BE000074601D1761CD3E7E1690D9888477F1C41
:100BF00002D1BAF1000F6FD06BE162690B98002748
:100C00003D46394690472A2804D162690B98012154
:100C100090470125DFF8D08262690B980121904747
:100C2000A0F130010A290AD24745E5DC07EB87012C
:100C300000EB4107303FDFD445F01005ECE7E90653
:100C400001D46FF000476C280AD04C2814D06828D3
:100C500015D06A280DD074281CD07A281AD01DE02F
:100C600062690B98012190476C2802D045F0040579
:100C700014E045F002050DE045F020050AE0626948
:100C80000B9801219047682802D045F0080505E03F
:100C900045F4006562690B9801219047C4E901574A
:100CA00065283DD019DC58287AD00CDC452837D08F
:100CB00004DC252826D041289ED131E046282FD0BB
:100CC000472899D12CE05B2877D0612828D0632869
:100CD0007CD0642823D15AE0F6E06F2848D008DCA5
:100CE00066281DD067281BD0692821D06E2816D110
:100CF00027E0702845D0732868D0752847D0782819
:100D00000DD14DE0A1690D988847252805463FF48F
:100D100069AFE1690D9888476D1C3FF46AAFD8E070
:100D20000D9923466A466FF00100AFF30080C5E0DD
:100D300045F0400023464FF000026060A80736D41B
:100D40003EE0E8077FF447AF2068011D216000689E
:100D5000290501D506701BE7290701D5068017E78D
:100D6000A90703D5F117C0E9006111E706600FE795
:100D700045F0400023464FF008026060A80716D4F3
:100D80001EE040F60E0125EA0100606016E045F025
:100D9000400023464FF00A026060A80707D40FE026
:100DA00045F040006060A80708D5234610220D9941
:100DB0006FF00100AFF3008080E007E010222346CF
:100DC0000D996FF00100FFF749FB77E04FF0000944
:100DD00063284F46C8464B46CB4602D05B2806D018
:100DE00038E0E80601D40120A060012732E0626902
:100DF000D4F80CB00B98012190475E2807D14FF032
:100E0000010949466269D4F80CB00B9890472169F2
:100E100039B900210A4603AB43F82120491C0829AF
:100E2000FADBD8B3216949B308F1010862690B986C
:100E3000012190475D28F4D1B9F1000F09D00020BD
:100E400003A951F82020D24341F82020401C082853
:100E5000F7DB03AB2069002820794FEA40701ED0F1
:100E60005B462246CDF80080CDE901970D99002818
:100E70006FF0010020DAAFF300801FE0C11703AA72
:100E800000EBD1614B1121F01F0102EB8302411AEB
:100E900013680120884003431360C7E719E00D99E8
:100EA000224600286FF00100009702DAAFF30080BD
:100EB00004E0AFF3008001E0AFF3008000280ADA1D
:100EC000401C06D10C9820B14FF0FF300FB0BDE8A8
:100ED000F08F5046FAE7E90701D10AF1010A06440A
:100EE00000200C9054E60000CCCCCC0C2DE9F05F37
:100EF000824615468B4600270AF10104B946007860
:100F0000302801D09DB113E014F8010B0127782897
:100F100003D0582801D045B10AE00DB1102D07D1FA
:100F2000002714F8010B102502E0082500E00A252F
:100F30000026B0460EE005FB080005FB06F1012780
:100F40001FFA80F801EB1046B6F5803F00D3B94692
:100F500014F8010B2946FFF762FD0028EBDABBF11C
:100F6000000F05D00FB1641E00E05446CBF80040DE
:100F7000B9F1000F06D0FFF7D7FC02210160C81EAF
:100F8000BDE8F09F48EA0640FAE77546FFF7E6FD40
:100F9000AE4605006946534620F00700854618B066
:100FA00020B5FFF737F9BDE820404FF000064FF0BD
:100FB00000074FF000084FF0000B21F00701AC468E
:100FC000ACE8C009ACE8C009ACE8C009ACE8C009AD
:100FD0008D46704710B50446AFF300802046BDE84B
:100FE0001040FFF702B9000001491820ABBEFEE730
:100FF000260002000146002008704870C870887002
:101000007047000010B51FF019FC2548406900F436
:10101000E020B0F5803F01D101242BE02048406959
:1010200000F4E020B0F5003F01D1022422E01C488A
:10103000406900F4E020B0F5403F01D1032419E0FD
:101040001748406900F4E020B0F5802F01D1042456
:1010500010E01348406900F4E020B0F5A02F01D162
:10106000052407E00E48406900F4E020B0F5E02FC9
:1010700000D106240B48006818B10A4801682046D0
:1010800088470748406920F4E0200549486100206E
:1010900005490870054988621FF0E8FB10BD000093
:1010A00000000640BCE2FF1FC504FF1F00007042A5
:1010B00010B51FF0C3FB2548406A00F4E020B0F5EE
:1010C000803F01D101242BE02048406A00F4E02059
:1010D000B0F5003F01D1022422E01C48406A00F430
:1010E000E020B0F5403F01D1032419E01748406AE1
:1010F00000F4E020B0F5802F01D1042410E0134863
:10110000406A00F4E020B0F5A02F01D1052407E0EB
:101110000E48406A00F4E020B0F5E02F00D106242C
:101120000B48406818B10A4841682046884707487C
:10113000406A20F4E0200549486200200549087013
:10114000054988621FF092FB10BD000000000640B8
:10115000BCE2FF1FC604FF1F0020704210B51FF045
:101160006DFB2548406C00F4E020B0F5803F01D1D4
:1011700001242BE02048406C00F4E020B0F5003F53
:1011800001D1022422E01C48406C00F4E020B0F5BC
:10119000403F01D1032419E01748406C00F4E020DF
:1011A000B0F5802F01D1042410E01348406C00F406
:1011B000E020B0F5A02F01D1052407E00E48406CD7
:1011C00000F4E020B0F5E02F00D106240B48C06801
:1011D00018B10A48C168204688470748406C20F487
:1011E000E0200549486400200549087005498862E7
:1011F0001FF03CFB10BD000000000640BCE2FF1FDA
:10120000C804FF1F0060704210B51FF017FB25488F
:10121000406D00F4E020B0F5803F01D101242BE0C7
:101220002048406D00F4E020B0F5003F01D10224D9
:1012300022E01C48406D00F4E020B0F5403F01D1B1
:10124000032419E01748406D00F4E020B0F5802F2A
:1012500001D1042410E01348406D00F4E020B0F503
:10126000A02F01D1052407E00E48406D00F4E020D6
:10127000B0F5E02F00D106240B48006918B10A48E8
:101280000169204688470748406D20F4E020054961
:101290004865002005490870054988621FF0E6FA94
:1012A00010BD000000000640BCE2FF1FC904FF1F84
:1012B0000080704210B51FF0C1FA2548406E00F45E
:1012C000E020B0F5803F01D101242BE02048406EA2
:1012D00000F4E020B0F5003F01D1022422E01C48D8
:1012E000406E00F4E020B0F5403F01D1032419E046
:1012F0001748406E00F4E020B0F5802F01D104249F
:1013000010E01348406E00F4E020B0F5A02F01D1AA
:10131000052407E00E48406E00F4E020B0F5E02F11
:1013200000D106240B48406918B10A48416920469B
:1013300088470748406E20F4E020054948660020B1
:1013400005490870054988621FF090FA10BD000039
:1013500000000640BCE2FF1FCA04FF1F00A070424D
:1013600010B51FF06BFA2548406F00F4E020B0F58F
:10137000803F01D101242BE02048406F00F4E020A1
:10138000B0F5003F01D1022422E01C48406F00F478
:10139000E020B0F5403F01D1032419E01748406F29
:1013A00000F4E020B0F5802F01D1042410E01348B0
:1013B000406F00F4E020B0F5A02F01D1052407E034
:1013C0000E48406F00F4E020B0F5E02F00D1062475
:1013D0000B48806918B10A48816920468847074848
:1013E000406F20F4E0200549486700200549087057
:1013F000054988621FF03AFA10BD0000000006405F
:10140000BCE2FF1FCB04FF1F00C0704210B51FF0ED
:1014100015FA2648006800F4E020B0F5803F01D1BD
:1014200001242BE02148006800F4E020B0F5003FE3
:1014300001D1022422E01D48006800F4E020B0F54C
:10144000403F01D1032419E01848006800F4E0206F
:10145000B0F5802F01D1042410E01448006800F496
:10146000E020B0F5A02F01D1052407E00F48006867
:1014700000F4E020B0F5E02F00D106240C48C0694C
:1014800018B10B48C169204688470848006820F415
:10149000E02006498439C1F884000020054908701D
:1014A000054988621FF0E2F910BD00008400064083
:1014B000BCE2FF1FCC04FF1F00E070422DE9F05F8B
:1014C00005460C4690461E46DDE90AA7022D14D1BA
:1014D000C24847EA0001C248A20040F82210C149B0
:1014E000001DA20040F82210001DA10040F821605C
:1014F000BD49001DA20040F82210042D14D1BB48A4
:1015000047EA0001B648A20040F82210B549001D84
:10151000A20040F82210001DA10040F82160B4494B
:10152000001DA20040F82210082D14D1B14847EA4E
:101530000001AB48A20040F82210AA49001DA200F9
:1015400040F82210001DA10040F82160AA49001DAA
:10155000A20040F822100A2D14D1A8483843A0490F
:10156000A20041F822009F499D48001DA20040F8BA
:101570002210001DA10040F82160A149001DA20019
:1015800040F822100C2D14D19E4847EA00019448DF
:10159000A20040F822109349001DA20040F822103A
:1015A000001DA10040F821609749001DA20040F8ED
:1015B00022100E2D14D1954838438949A20041F8D4
:1015C000220088498648001DA20040F82210001D14
:1015D000A10040F821608E49001DA20040F82210B1
:1015E000102D14D18B4838437D49A20041F82200C8
:1015F0007C497B48001DA20040F82210001DA1007C
:1016000040F821608449001DA20040F82210B8F182
:10161000010F1FD17248001DA10050F8210040F0B9
:1016200001016F48001DA20040F82210A10050F8EF
:10163000210040F460016A48001DA20040F8221019
:10164000A10050F8210020F400216548001DA200EF
:1016500040F82210ACB926207049087004F012F846
:1016600083460122114603F0CDFF814649466B486F
:1016700090F9000004F02AF8684890F9000003F09F
:10168000ABFF012C15D127206449087003F0FAFF45
:1016900083460122114603F0B5FF814649465F4863
:1016A00090F9000004F012F85C4890F9000003F093
:1016B00093FF022C15D128205849087003F0E2FF4F
:1016C00083460122114603F09DFF81464946534857
:1016D00090F9000003F0FAFF504890F9000003F081
:1016E0007BFF032C15D129204C49087003F0CAFF59
:1016F00083460122114603F085FF8146494647484B
:1017000090F9000003F0E2FF444890F9000003F074
:1017100063FF042C15D12A204049087003F0B2FF62
:1017200083460122114603F06DFF814649463B483E
:1017300090F9000003F0CAFF384890F9000003F068
:101740004BFF052C15D12B203449087003F09AFF6C
:1017500083460122114603F055FF814649462F4832
:1017600090F9000003F0B2FF2C4890F9000003F05C
:1017700033FF062C15D12C202849087003F082FF76
:1017800083460122114603F03DFF81464946234826
:1017900090F9000003F09AFF204890F9000003F050
:1017A0001BFF072C15D12D201C49087003F06AFF80
:1017B00083460122114603F025FF8146494617481A
:1017C00090F9000003F082FF144890F9000003F044
:1017D00003FF002012490870BDE8F09F00008096CA
:1017E0001000064000001821088003400000809788
:1017F0000881034000008099088303400000809A1C
:10180000088403400000809B088503400000809C02
:10181000088603400000809D08870340C404FF1F22
:10182000E801FF1F2DE9F04780464FF00009D8F886
:101830003C50FE48854201D1002420E0FC4885420E
:1018400001D101241BE0FB48854201D1032416E0AD
:10185000F948854201D1042411E0F848854201D1BC
:1018600005240CE0F648854201D1062407E0F5483E
:10187000854201D1072402E00020BDE8F08704EB97
:101880000420F14901EB800004EB0421EE4A02EB55
:10189000810191F8E01101EB410100EBC100407AB8
:1018A000012820D1002004EB042102EB810104EB8C
:1018B0000422E54B03EB820292F8E02102EB4202A4
:1018C00001EBC201487204EB0420194601EB8000D1
:1018D00090F8E001401C04EB04211A4602EB810160
:1018E00081F8E001A7E004EB0420D74901EB800078
:1018F00004EB0421D44A02EB810191F8E01101EBE1
:10190000410100EBC100C07A401C04EB042102EB52
:10191000810104EB0422CC4B03EB820292F8E0211C
:1019200002EB420201EBC201C87204EB042019462B
:1019300001EB800004EB04211A4602EB810191F8CF
:10194000E01101EB410100EBC100C07901281ED17B
:10195000002004EB042102EB810104EB042203EBE1
:10196000820292F8E02102EB420201F8320004EB1D
:101970000420194601EB800090F8E001401C04EBC4
:1019800004211A4602EB810181F8E00153E004EBE7
:101990000420AD4901EB800004EB0421AA4A02EBCC
:1019A000810191F8E01101EB410100EBC100C07A27
:1019B000022840DD002004EB042102EB810104EB4E
:1019C0000422A14B03EB820292F8E02102EB4202D7
:1019D00001F83200012004EB04211A4602EB8101D8
:1019E00004EB042203EB820292F8E02102EB4202B4
:1019F00001EBC201C871002004EB04211A4602EB7E
:101A0000810104EB042203EB820292F8E02102EB55
:101A1000420201EBC201C87204EB0420194601EB3B
:101A2000800090F8E001401C04EB04211A4602EB10
:101A3000810181F8E00104EB0420834901EB80007F
:101A400090F8E00104EB8401804A02EBC101897C3B
:101A5000884225DB002004EB04217B4A02EB810154
:101A600081F8E00104EB0420114601EB800090F8BE
:101A7000F601401C04EB042102EB810181F8F60120
:101A800004EB0420114601EB800090F8F6010228D7
:101A900006DD002004EB042102EB810181F8F60150
:101AA00004EB0420684901EB800090F8E101E8B301
:101AB00000272CE004EB0420634901EB800007EBD6
:101AC000470100EBC100007901281ED104EB04207E
:101AD0005D4901EB800080F8E07104EB04200B46C7
:101AE00003EB800090F8E0112046EA6829F058F8EE
:101AF0000646002004EB0421534A02EB810107EB68
:101B0000470201EBC201087103E0781CC7B2142F31
:101B1000D0DB00BF04EB04204B4901EB800090F8C0
:101B2000E101012850DB04EB042000E00CE001EBB4
:101B3000800090F8E101401E04EB0421424A02EBD0
:101B4000810181F8E1013FE004EB04203E4901EB13
:101B5000800090F8F60160B904EB04200B4603EB1B
:101B6000800090F8E0112046EA681CF0DFFE06468F
:101B70002AE004EB0420344901EB800090F8F601E0
:101B800001280CD104EB04200B4603EB800090F8F5
:101B9000E0112046EA681CF0C5FF064614E004EB9D
:101BA0000420294901EB800090F8F60102280BD1AE
:101BB00004EB04200B4603EB800090F8E011204674
:101BC000EA681CF031FF06460EB9002055E63146A2
:101BD000E86810F039FE8146701CEA6802F800904F
:101BE0004FEA1920E9688855731C00214046EA68CD
:101BF0001DF02EFCC8B904EB0420134901EB800052
:101C000004EB0421104A02EB810191F8E01101EB91
:101C1000410100EBC100007A401C04EB042102EBFF
:101C2000810104EB0422084B12E01CE00002FF1FBC
:101C30001002FF1F2002FF1F3002FF1F4002FF1F84
:101C40005002FF1F6002FF1F4C07FF1F5E00FF1FB7
:101C500003EB820292F8E02102EB420201EBC201A7
:101C60000872002009E610480078D0B1B01C04EBDF
:101C700004210E4A02EB810181F8F70104EB0422F2
:101C80000A4B03EB820202F5FC70B21CE96810F00B
:101C900004FE012004EB0421044A02EB810181F8D7
:101CA000F7030120E9E50000A802FF1F4C07FF1F12
:101CB0002DE9F04780464FF00009D8F83C50FE4827
:101CC000854201D1002420E0FC48854201D1012455
:101CD0001BE0FB48854201D1032416E0F948854208
:101CE00001D1042411E0F848854201D105240CE01B
:101CF000F648854201D1062407E0F548854201D126
:101D0000072402E00020BDE8F08704EB0420F1493D
:101D100001EB800004EB0421EE4A02EB810191F813
:101D2000E01101EB410100EBC100407A012820D114
:101D3000002004EB042102EB810104EB0422E54BBB
:101D400003EB820292F8E02102EB420201EBC201B6
:101D5000487204EB0420194601EB800090F8E00182
:101D6000401C04EB04211A4602EB810181F8E001DA
:101D7000A7E004EB0420D74901EB800004EB042129
:101D8000D44A02EB810191F8E01101EB410100EB33
:101D9000C100C07A401C04EB042102EB810104EB7A
:101DA0000422CC4B03EB820292F8E02102EB4202C8
:101DB00001EBC201C87204EB0420194601EB80005C
:101DC00004EB04211A4602EB810191F8E01101EBCA
:101DD000410100EBC100C07901281ED1002004EBB5
:101DE000042102EB810104EB042203EB820292F84E
:101DF000E02102EB420201F8320004EB0420194614
:101E000001EB800090F8E001401C04EB04211A462D
:101E100002EB810181F8E00153E004EB0420AD49BD
:101E200001EB800004EB0421AA4A02EB810191F846
:101E3000E01101EB410100EBC100C07A022840DD56
:101E4000002004EB042102EB810104EB0422A14BEE
:101E500003EB820292F8E02102EB420201F8320029
:101E6000012004EB04211A4602EB810104EB042259
:101E700003EB820292F8E02102EB420201EBC20185
:101E8000C871002004EB04211A4602EB810104EB27
:101E9000042203EB820292F8E02102EB420201EB02
:101EA000C201C87204EB0420194601EB800090F8CF
:101EB000E001401C04EB04211A4602EB810181F889
:101EC000E00104EB0420834901EB800090F8E0017D
:101ED00004EB8401804A02EBC101897C884225DB46
:101EE000002004EB04217B4A02EB810181F8E00130
:101EF00004EB0420114601EB800090F8F601401C31
:101F000004EB042102EB810181F8F60104EB0420CB
:101F1000114601EB800090F8F601022806DD002052
:101F200004EB042102EB810181F8F60104EB0420AB
:101F3000684901EB800090F8E101E8B300272CE04C
:101F400004EB0420634901EB800007EB470100EB41
:101F5000C100007901281ED104EB04205D4901EB8A
:101F6000800080F8E07104EB04200B4603EB800056
:101F700090F8E0112046EA682AF046FE0646002066
:101F800004EB0421534A02EB810107EB470201EB0A
:101F9000C201087103E0781CC7B2142FD0DB00BF68
:101FA00004EB04204B4901EB800090F8E10101288B
:101FB00050DB04EB042000E00CE001EB800090F823
:101FC000E101401E04EB0421424A02EB810181F849
:101FD000E1013FE004EB04203E4901EB800090F872
:101FE000F60160B904EB04200B4603EB800090F887
:101FF000E0112046EA681CF0C3FC06462AE004EB28
:102000000420344901EB800090F8F60101280CD13E
:1020100004EB04200B4603EB800090F8E01120460F
:10202000EA681CF0A9FD064614E004EB04202949E7
:1020300001EB800090F8F60102280BD104EB04209C
:102040000B4603EB800090F8E0112046EA681CF094
:1020500015FD06460EB9002055E63146E86810F039
:10206000F3FB8146701CEA6802F800904FEA1920E1
:10207000E9688855731C00214046EA681DF0E8F9BC
:10208000C8B904EB0420134901EB800004EB0421E0
:10209000104A02EB810191F8E01101EB410100EBE4
:1020A000C100007A401C04EB042102EB810104EB27
:1020B0000422084B12E01CE00002FF1F1002FF1F69
:1020C0002002FF1F3002FF1F4002FF1F5002FF1FB0
:1020D0006002FF1F4C07FF1F5E00FF1F03EB820221
:1020E00092F8E02102EB420201EBC20108720020EB
:1020F00009E610480078D0B1B01C04EB04210E4A68
:1021000002EB810181F8F70104EB04220A4B03EB97
:10211000820202F5FC70B21CE96810F0BEFB0120DF
:1021200004EB0421044A02EB810181F8F70301204A
:10213000E9E50000A802FF1F4C07FF1F2DE9F0474B
:1021400080464FF00009D8F83C50FE48854201D146
:10215000002420E0FC48854201D101241BE0FB481B
:10216000854201D1032416E0F948854201D10424B7
:1021700011E0F848854201D105240CE0F64885427B
:1021800001D1062407E0F548854201D1072402E089
:102190000020BDE8F08704EB0420F14901EB80004A
:1021A00004EB0421EE4A02EB810191F8E01101EB0E
:1021B000410100EBC100407A012820D1002004EB4E
:1021C000042102EB810104EB0422E54B03EB8202C4
:1021D00092F8E02102EB420201EBC201487204EBEB
:1021E0000420194601EB800090F8E001401C04EB4C
:1021F00004211A4602EB810181F8E001A7E004EB1B
:102200000420D74901EB800004EB0421D44A02EBFF
:10221000810191F8E01101EB410100EBC100C07AAE
:10222000401C04EB042102EB810104EB0422CC4BA3
:1022300003EB820292F8E02102EB420201EBC201C1
:10224000C87204EB0420194601EB800004EB042162
:102250001A4602EB810191F8E01101EB410100EB1C
:10226000C100C07901281ED1002004EB042102EB3B
:10227000810104EB042203EB820292F8E02102EBDD
:10228000420201F8320004EB0420194601EB800001
:1022900090F8E001401C04EB04211A4602EB810196
:1022A00081F8E00153E004EB0420AD4901EB80002C
:1022B00004EB0421AA4A02EB810191F8E01101EB41
:1022C000410100EBC100C07A022840DD002004EB90
:1022D000042102EB810104EB0422A14B03EB8202F7
:1022E00092F8E02102EB420201F83200012004EBF7
:1022F00004211A4602EB810104EB042203EB820263
:1023000092F8E02102EB420201EBC201C871002009
:1023100004EB04211A4602EB810104EB042203EBD7
:10232000820292F8E02102EB420201EBC201C87284
:1023300004EB0420194601EB800090F8E001401CFA
:1023400004EB04211A4602EB810181F8E00104EB61
:102350000420834901EB800090F8E00104EB840144
:10236000804A02EBC101897C884225DB002004EB16
:1023700004217B4A02EB810181F8E00104EB042097
:10238000114601EB800090F8F601401C04EB04219B
:1023900002EB810181F8F60104EB0420114601EB08
:1023A000800090F8F601022806DD002004EB0421ED
:1023B00002EB810181F8F60104EB0420684901EB8E
:1023C000800090F8E101E8B300272CE004EB042042
:1023D000634901EB800007EB470100EBC100007986
:1023E00001281ED104EB04205D4901EB800080F838
:1023F000E07104EB04200B4603EB800090F8E01141
:102400002046EA682CF034FC0646002004EB042148
:10241000534A02EB810107EB470201EBC20108714D
:1024200003E0781CC7B2142FD0DB00BF04EB0420FC
:102430004B4901EB800090F8E101012850DB04EBEF
:10244000042000E00CE001EB800090F8E101401E68
:1024500004EB0421424A02EB810181F8E1013FE0F3
:1024600004EB04203E4901EB800090F8F60160B9CE
:1024700004EB04200B4603EB800090F8E0112046AB
:10248000EA681CF0A7FA06462AE004EB0420344967
:1024900001EB800090F8F60101280CD104EB042038
:1024A0000B4603EB800090F8E0112046EA681CF030
:1024B0008DFB064614E004EB0420294901EB800063
:1024C00090F8F60102280BD104EB04200B4603EB35
:1024D000800090F8E0112046EA681CF0F9FA064600
:1024E0000EB9002055E63146E86810F0ADF9814696
:1024F000701CEA6802F800904FEA1920E9688855D4
:10250000731C00214046EA681CF0A2FFC8B904EB26
:102510000420134901EB800004EB0421104A02EB74
:10252000810191F8E01101EB410100EBC100007A5B
:10253000401C04EB042102EB810104EB0422084B54
:1025400012E01CE00002FF1F1002FF1F2002FF1F0D
:102550003002FF1F4002FF1F5002FF1F6002FF1FDB
:102560004C07FF1F5E00FF1F03EB820292F8E02181
:1025700002EB420201EBC2010872002009E610489A
:102580000078D0B1B01C04EB04210E4A02EB8101AB
:1025900081F8F70104EB04220A4B03EB820202F5F7
:1025A000FC70B21CE96810F078F9012004EB0421FA
:1025B000044A02EB810181F8F7030120E9E50000FC
:1025C000A802FF1F4C07FF1F01460020704701466D
:1025D000002070472DE9F043CBB00646B04642F2EA
:1025E000166701204090002400231A464AA940465D
:1025F00015F0E2FE10204190002046904790489050
:10260000499002208DF8190110208DF818013846E4
:1026100017F06DFFADF81A014A984790002201218A
:10262000022018F029FE8146401C10B94BB0BDE8CD
:10263000F08340AA3249484617F06EFF002803DABB
:10264000484617F0F7FEF1E7102246A9484617F072
:1026500067FE401C18B9484617F0ECFEE6E701217A
:10266000484617F09FFF401C18B9484617F0E2FE95
:10267000DCE74FF0FF3541E0681C00B300234FF466
:1026800080726946284617F0DFFF04462CB92846B9
:1026900017F0D0FE4FF0FF352CE0002C03DD214673
:1026A000684610F0B1F9684610F0ECF904460CB336
:1026B000002322466946284618F046FC1AE041AA43
:1026C00042A9484617F0DAFC0546401C28B90FF02D
:1026D00009FA00680B2800D010E0002D0ADD40AA9E
:1026E0000749284617F018FF002803DA284617F094
:1026F000A1FE03E00A201FF0BBFF00BFBCE7000003
:102700007E66048041B141F21802125842F0020381
:1027100041F21802135007E041F21802125822F059
:10272000020341F218021350704741B141F21802FE
:10273000125842F4005341F21802135007E041F2DC
:102740001802125822F4005341F218021350704735
:1027500030B503460C46002000BF18E003EB001123
:102760004FF000450D6044F2F0554D60C0EB401550
:1027700005EB801504EB05158D60551E854204D9C7
:1027800003EB00151035CD6000E0CB60401C90429B
:10279000E4D330BD30B503460C46002000BF15E041
:1027A00003EB00114FF480150D60C0EB401505EBF5
:1027B000801504EB05158D60551E854204D903EB89
:1027C00000151035CD6000E0CB60401C9042E7D38F
:1027D00030BD41F21801095841F4801241F218014C
:1027E0000A50704710B53AB141F21C031B580B4315
:1027F00041F21C04235006E041F21C031B588B439A
:1028000041F21C04235010BD2DE9F8430646D6F8CA
:10281000845041F21400445941F21C0050F80580E4
:1028200004F0006078B124A01EF096F824A01EF0F9
:1028300093F805F5807701E001CF009005F5217050
:102840008742F9D300BF04F4803008B34FF48037D7
:1028500004EA080000F0010030B142F29440304434
:102860001FF0AAFB47F0010704EA080000F040004F
:1028700048B1002240212846FFF7B4FF304611F04E
:1028800077FC47F040073946284600F0B1F800BF12
:1028900004F4004030B14FF400473946284600F0B8
:1028A000A7F800BF04F4E000B0F5C00F02D128463D
:1028B00000F032F9BDE8F8835B454D41435D2000EF
:1028C000454D41435F444D415F494E545F474D493B
:1028D0000D0A000021B1026842F00402026003E028
:1028E000026822F004020260704721B1026842F0DF
:1028F0000802026003E0026822F0080202607047EA
:1029000030B51479557944EA052300F14004635049
:10291000D4782406957844EA0544557844EA052499
:10292000157844EA050300F14404635030BD00000B
:1029300038B503460C46002100200090196901F0CB
:102940001C014FF4784000EAC42001434FF4F860C2
:1029500000EA8210014321F0020141F001011961F6
:1029600000BF0098401C0090196901F0010018B1E7
:10297000064D0098A842F4D3044D0098A84201D116
:10298000002038BD586980B2FBE70000FFFF04005B
:1029900078B504460D46002100200090216901F021
:1029A0001C014FF4784000EAC52001434FF4F86061
:1029B00000EA8210014341F0020141F0010163612C
:1029C000216100BF0098401C0090216901F00100C6
:1029D00018B1064E0098B042F4D3044E0098B042AD
:1029E00001D1002078BD0120FCE70000FFFF0400BA
:1029F00041F21402115070473CB503460C460021C9
:102A0000002001900090196921F01C0137480068EE
:102A1000374DA84207D335480068364DA84202D248
:102A200041F0080133E031480068324DA84207D335
:102A30002E480068304DA84202D241F00C0126E039
:102A40002A4800682C4DA84205D3284800682B4D21
:102A5000A84200D81BE025480068284DA84207D3AB
:102A600022480068264DA84202D841F004010EE039
:102A70001E480068224DA84207D31C480068214D1B
:102A8000A84202D841F0100101E041F014011E48B3
:102A9000016119681D48014044EA020040F4C06029
:102AA000014341F4004121F0007121F0807119606F
:102AB0005020586000209860D86099694FF64170A6
:102AC000014041F0800199610020D86141F2180075
:102AD000C1580F48014041F0C46141F21800C15093
:102AE0000C4D4FF48050C55001203CBDD403FF1F56
:102AF000002D3101C00E16020087930300E1F50599
:102B000080D1F00880B2E60E004006400F8120FF21
:102B1000233FDEF80060C102002241F204010A50A6
:102B2000704710B5044601212046FFF7DEFE20461F
:102B3000FFF74FFE01212046FFF7CCFE0121204682
:102B4000FFF7F3FD01212046FFF7DCFD10BD00007B
:102B500010B51DF073FE0348FFF756FE1DF086FE0C
:102B600010BD0000DCE2FF1F00B502F06FFBD020BB
:102B700002F0AAFB012002F0A7FB02F067FB002095
:102B800002F0A2FB02F0E4FA02F07EFB00BD0000BE
:102B900070B50C4840680B49096800EA010600203E
:102BA0000849886000240AE00120A040304028B194
:102BB000054850F824500DB12046A847641C202C2D
:102BC000F2D370BD00000340D4070020014621B1BC
:102BD000032904D0052907D103E0012006E00A20DB
:102BE00004E0034A107801E0002000BF00BF7047F6
:102BF000A501FF1F2DE9F04FA5B0064688461446F3
:102C000000250027AA460020249023908346229086
:102C10002190209019904046FDF729FD1F90FCA1BE
:102C20004046FDF7EEFC2390239840B12398FDF732
:102C30001EFD1F99081A1F90002123980170F5A10D
:102C40004046FDF7DEFC2390239840B12398FDF722
:102C50000EFD1F99081A1F9000212398017030461D
:102C6000FEF7C8F902F045BAEBA14046FDF7ABFC10
:102C700007461F98874205D301207070284625B06B
:102C8000BDE8F08F18F807002190B8441F98C01BCA
:102C90001F900027791C08EB0100E0A1FDF7A3FCC1
:102CA00007461F98874203D3012070702846E6E745
:102CB0007F1C08EB0700DAA1FDF785FC00EB070A93
:102CC0001F98824503D3022070702846D7E7002062
:102CD00008F80A000AF10100209008EB0700CFA1D4
:102CE000FDF771FC384424901F992498884201D242
:102CF000DDF890A0AAF1010A21983C2803D05B28B6
:102D000042F0EB81B1E0AAEB07014A1C08EB070097
:102D1000C4A1FDF7CBFCC8B9307818B101207070A0
:102D20002846ACE701203070002018900AE000210E
:102D3000189800EB8000BD4A02F830101898401C2B
:102D4000C0B2189018980828F1DB87E0AAEB0701B9
:102D50004A1C08EB0700B6A1FDF7A8FC40B9307883
:102D600018B101207070284689E70220307075E0A4
:102D7000AAEB07014A1C08EB0700AFA1FDF796FC80
:102D800040B9307818B101207070284677E70320E9
:102D9000307063E0AAEB07014A1C08EB0700A8A10A
:102DA000FDF784FC40B9307818B1012070702846D6
:102DB00065E70420307051E0AAEB07014A1C08EBDC
:102DC0000700A2A1FDF772FC48B93078012803D0B2
:102DD00001207070284652E7002030703EE0AAEBD8
:102DE00007014A1C08EB07009AA1FDF75FFC48B9F0
:102DF0003078022803D00120707028463FE7002079
:102E000030702BE0AAEB07014A1C08EB070094A1E5
:102E1000FDF74CFC48B93078032803D001207070CE
:102E200028462CE70020307018E0AAEB07014A1C66
:102E300008EB07008CA1FDF739FC58B9307804285D
:102E400003D001207070284619E70020307020F070
:102E500083FC03E001207070284610E7DDE91F01C4
:102E6000401A1F9020988044FCE63078012808D052
:102E700002287DD003287CD0042842F02C8101F068
:102E8000E1BD0120199008EB070022AA79A1FDF706
:102E900098FB834600BF78A1584621F092F8B0B95C
:102EA00022AA74A10020FDF78CFB834674A158462A
:102EB00021F087F818B1012070702846DFE64FF442
:102EC000805020800120606008346D1C94E06EA169
:102ED000584621F076F818BB22AA66A10020FDF71B
:102EE00070FB83466AA1584621F06BF838B941F26D
:102EF000010020800020606008346D1C7CE065A12A
:102F0000584621F05EF838B941F2010020800120D6
:102F1000606008346D1C6FE0012070702846AEE6DA
:102F20005EA1584621F04DF880B922AA51A1002097
:102F3000FDF747FB834641F202002080221D58A185
:102F40005846FDF76DFA08346D1C55E055A15846FA
:102F500021F037F888B922AA46A10020FDF731FBFD
:102F6000834641F2030020804FF0FF30606001E0B3
:102F7000A4E0EFE308346D1C3EE04CA1584621F07C
:102F800020F8D0B922AA3BA10020FDF71AFB834606
:102F900041F2040020805846FDF769FB082803D958
:102FA0000120707028466AE608235A460421201D35
:102FB0000EF076FF08346D1C1EE03EA1584621F04D
:102FC00000F8C8B922AA2BA10020FDF7FAFA83461F
:102FD00041F2050020805846FDF749FB062803D939
:102FE0000120707028464AE606235A460421201D17
:102FF0000EF056FF08346D1C22AA1EA10020FDF71A
:10300000E0FA8346BBF1000F7FF445AF02F063B8EE
:103010005C0000002F2F00003C5B0000200000003F
:103020003E5D0000646566696E6500005E00FF1F1E
:103030006368616E6E656C00646576696365000047
:10304000757073747265616D000000006465666977
:103050006E6540006368616E6E656C400000000044
:103060006465766963654000757073747265616D3F
:1030700040000000203D5D00737570706F72740039
:1030800077636D3630303000747970650000000071
:10309000636667006D6F64656C00000076657200A2
:1030A000256400007573657200000000646174653A
:1030B0000000000074696D65000000000220199096
:1030C00008EB070022AAAFF25401FDF77AFA834613
:1030D00000BFFBA1584620F074FF38BB22AAAFF214
:1030E0006C010020FDF76DFA83464FF400502080FC
:1030F000221DAFF254015846FDF792F994F804905E
:10310000B9F1020F03DB09F1010000F0FF09012012
:1031100009EB8901EC4A02F83100207909EB8901B9
:1031200002EBC101487008346D1C8AE3E7A15846E0
:1031300020F047FF20BB22AAAFF2C8010020FDF714
:1031400040FA83461EAAAFF2A8015846FDF768F977
:103150001E9810B11E98102803DD012070702846BB
:103160008DE542F2010020801E986060207909EB15
:103170008901D54A02EBC101887008346D1C60E3F7
:10318000AFF2FC01584620F01CFF50BB22AAAFF260
:103190001C110020FDF715FA8346CDA1584620F0FA
:1031A00010FF28B942F202002080002060600EE08B
:1031B000C9A1584620F005FF28B942F2020020803C
:1031C0000120606003E001207070284657E52079F7
:1031D00009EB8901BC4A02EBC101C87008346D1CBF
:1031E0002FE3BFA1584620F0ECFEA8BB22AAAFF205
:1031F0007C110020FDF7E5F98346BCA1584620F07C
:10320000E0FE28B942F2030020800020606019E04F
:10321000B8A1584620F0D5FE28B942F2030020801C
:10322000012060600EE0B5A1584620F0CAFE28B922
:1032300042F2030020800220606003E001207070F1
:1032400028461CE5207909EB89019F4A02EBC10160
:10325000087108346D1CF4E2FFE7AAA1584620F07B
:10326000B0FEC8B922AAAFF2F4110020FDF7A9F907
:10327000834642F204002080221DAFF2DC11584642
:10328000FDF7CEF8A08809EB89018F4A02EBC10156
:10329000C88008346D1CD4E29DA1584620F091FEF0
:1032A000C8B922AAAFF234210020FDF78AF983467B
:1032B00042F205002080221DAFF21C215846FDF786
:1032C000AFF8A08809EB89017F4A02EBC1010881B0
:1032D00008346D1CB5E290A1584620F072FE50BB38
:1032E00022AAAFF270210020FDF76BF983468DA171
:1032F000584620F066FE28B942F2060020800020E1
:1033000060600EE088A1584620F05BFE28B942F2CA
:10331000060020800120606003E0012070702846D4
:10332000ADE4207909EB8901674A02EBC10188729B
:1033300008346D1C85E27DA1584620F042FE28BB72
:1033400022AAAFF2D0210020FDF73BF983464FF0CF
:10335000FF306060221D78A15846FDF761F81E908D
:103360001E9810B11E98082803DD012070702846B1
:1033700085E442F20700208009EB8901524A02EB02
:10338000C1011E98C87208346D1C5AE26CA15846DF
:1033900020F017FEC8B922AAAFF228310020FDF7AD
:1033A00010F9834642F208002080221DAFF210314E
:1033B0005846FDF735F8A08809EB8901424A02EB2F
:1033C000C101888108346D1C3BE261A1584620F0A0
:1033D000F8FDC8B922AAAFF264310020FDF7F1F878
:1033E000834642F209002080221DAFF24C3158463C
:1033F000FDF716F8207909EB8901334A02EBC10188
:10340000887308346D1C1CE254A1584620F0D9FD85
:10341000C8B922AAAFF2A4310020FDF7D2F8834642
:1034200042F20A002080221DAFF28C315846FCF790
:10343000F7FF207909EB8901234A02EBC101C87328
:1034400008346D1CFDE148A1584620F0BAFDA8BB28
:1034500022AAAFF2E0310020FDF7B3F8834646A17F
:10346000584620F0AEFD28B942F20B002080002023
:10347000606019E042A1584620F0A3FD28B942F24D
:103480000B002080012060600EE03FA1584620F034
:1034900098FD28B942F20B0020800220606003E012
:1034A00001207070284611E4207909EB8901064A51
:1034B00002EBC101087408346D1CC2E166E0000033
:1034C000696E6465780000005E00FF1F6E756D0018
:1034D00073657269616C0000657468616E0000005C
:1034E00070726F746F636F6C000000006D6F6462C8
:1034F00075730000696563313033000068666E6182
:1035000032730000696E74657276616C00000000B1
:1035100074696D656F7574007472616E73706F6E2F
:10352000640000006E6F0000796573007365726956
:10353000616C706F72740000636F6D256400000031
:1035400073657269616C62617564726174650000B3
:1035500073657269616C7769647468007365726918
:10356000616C73746F70000073657269616C706177
:1035700072697479000000006E6F6E6500000000D3
:103580006576656E000000006F646400FEA1584619
:1035900020F017FDA8BB22AAAFF228510020FDF7AA
:1035A00010F88346FBA1584620F00BFD28B942F2E3
:1035B0000C0020800020606019E0F7A1584620F040
:1035C00000FD28B942F20C002080012060600EE06E
:1035D000F2A1584620F0F5FC28B942F20C002080F8
:1035E0000220606003E001207070284606E4207924
:1035F00009EB8901EA4A02EBC101487408346D1CE9
:103600001FE1FFE7E7A1584620F0DBFC80BB22AAC0
:10361000AFF2A0510020FCF7D4FF83461AA91BA8E3
:103620001CAB1DAACDE90001DFA15846FCF7F8FE4E
:103630001A98FF2808DC1B98FF2805DC1C98FF2837
:1036400002DC1D98FF2803DD01207070284604E489
:1036500042F20D0020801D98000638B91C98000425
:1036600020B91B98000208B91A9810B1012001E096
:1036700004E00020606008346D1CE2E0CEA15846F2
:1036800020F09FFC90B922AAAFF218610020FCF74D
:1036900098FF834642F20E002080221DAFF20061A7
:1036A0005846FCF7BDFE08346D1CCAE0C4A158465C
:1036B00020F087FC80BB22AAAFF248610020FCF713
:1036C00080FF83461AA91BA81CAB1DAACDE90001E7
:1036D000B5A15846FCF7A4FE1A98FF2808DC1B98F1
:1036E000FF2805DC1C98FF2802DC1D98FF2803DD5D
:1036F00001207070284612E442F20F0020801D98CD
:10370000000638B91C98000420B91B98000208B9BB
:103710001A9810B1012001E004E000206060083434
:103720006D1C8EE0A7A1584620F04BFC98B922AA48
:10373000AFF2C0610020FCF744FF834642F2100064
:103740002080221DAFF2A8615846FCF769FE0834BC
:103750006D1C76E082E09DA1584620F032FCC0B995
:1037600022AA9DA10020FCF72CFF834642F2110003
:103770002080221DAFF2D8615846FCF751FE207917
:1037800009EB8901864A02EBC101887408346D1C7B
:1037900057E092A1584620F014FC80BB22AA8EA1CB
:1037A0000020FCF70EFF834642F2120020800DF14C
:1037B0005B00411E821E16ABCDE90E32CDE9101022
:1037C000001F411E821E15ABCDE90A32CDE90C1057
:1037D000011F421F801F14ABCDE90630CDE908213F
:1037E000821EC11E001F13ABCDE90230CDE90412C9
:1037F000801E411E831E12AACDE9001000E020E0C9
:103800007AA15846FCF70CFE002018900EE012A991
:1038100018980A5C09EB8900614901EBC00013307C
:10382000189942541898401CC0B2189009EB8900AE
:103830005B4901EBC000817C18988142E7DC0834C9
:103840006D1C22AAAFF2D4710020FCF7BAFE8346A9
:10385000BBF1000F7FF43DAC01F03DBC032019909B
:1038600008EB070022AAAFF2F471FCF7AAFE834628
:1038700000BF6EA1584620F0A4FBF8B922AAAFF60B
:103880000C010020FCF79DFE834600201E901EAA1E
:1038900068A15846FCF7C4FD1E9810B11E98102868
:1038A00003DD0120707028465AE44FF44050208018
:1038B0001E98606008346D1C01F0B8B860A15846CD
:1038C00020F07FFB90B922AAAFF658010020FCF748
:1038D00078FE834643F201002080221DAFF64001AE
:1038E0005846FCF79DFD08346D1CE5E7AFF210412A
:1038F000584620F066FB80BB22AAAFF68801002064
:10390000FCF75FFE8346AFF21C41584620F059FB9E
:1039100038B943F2020020800020606008346D1C3A
:10392000CAE7AFF23041584620F04BFB38B943F2BA
:10393000020020800120606008346D1CBCE7AFF2FB
:103940004441584620F03DFB40B943F2020020803C
:103950000220606008346D1CAEE703E00120707047
:10396000284633E438A1584620F02BFB50B922AA50
:10397000AFF600110020FCF724FE834643F203005B
:10398000208065E06AE0000073657269616C74799B
:103990007065000034383500343232003233320082
:1039A0005E00FF1F697031002533642E2533642EBD
:1039B0002533642E25336400706F7274310000006B
:1039C00069703200706F727432000000646576694D
:1039D00063656E756D0000003D5D0000646576698D
:1039E0006365616464726C697374000025327825C4
:1039F000327825327825327825327825327825328A
:103A00007825327825327825327825327825327833
:103A10002532782532782532782532782532782576
:103A200032782532782532780000000070617265A6
:103A30006E7400004348414E4E454C256400000022
:103A400061646472000000006E616D65000000003A
:103A50004FF0FF30606008346D1C2DE7F9A1584627
:103A600020F0AFFA90B922AAAFF6F8110020FCF7C7
:103A7000A8FD834643F204002080221DAFF6E0112A
:103A80005846FCF7CDFC08346D1C15E7F0A15846EC
:103A900020F097FA90B922AAAFF628210020FCF76F
:103AA00090FD834643F205002080221DAFF61021D1
:103AB0005846FCF7B5FC08346D1CFDE6E5A15846F8
:103AC00020F07FFA90B922AAAFF658210020FCF727
:103AD00078FD834643F206002080221DAFF6402188
:103AE0005846FCF79DFC08346D1CE5E6DBA1584602
:103AF00020F067FA90B922AAAFF688210020FCF7DF
:103B000060FD834643F207002080221DAFF670213E
:103B10005846FCF785FC08346D1CCDE6D1A158460B
:103B200020F04FFA90B922AAAFF6B8210020FCF796
:103B300048FD834643F208002080221DAFF6A021F5
:103B40005846FCF76DFC08346D1CB5E6C7A1584615
:103B500020F037FA90B922AAAFF6E8210020FCF74E
:103B600030FD834643F209002080221DAFF6D021AC
:103B70005846FCF755FC08346D1C9DE6BDA158461F
:103B800020F01FFA90B922AAAFF618310020FCF7F6
:103B900018FD834643F20A002080221DAFF6003153
:103BA0005846FCF73DFC08346D1C85E6B3A1584629
:103BB00020F007FA002898D122AAAFF64831FCF786
:103BC00000FD8346B0A1584620F0FBF9002879D1CA
:103BD00022AAAFF66031FCF7F4FC834600BFABA12C
:103BE000584620F0EEF990B922AAAFF678310020BD
:103BF000FCF7E7FC83464FF444502080221DAFF6CB
:103C000060315846FCF70CFC08346D1C99E1A1A109
:103C1000584620F0D6F988B922AAAFF6A83100207C
:103C2000FCF7CFFC834643F201102080221D9BA1AC
:103C30005846FCF7F5FB08346D1C82E198A1584604
:103C400020F0BFF990B922AAAFF6D8310020FCF7D6
:103C5000B8FC834643F202102080221DAFF6C0312B
:103C60005846FCF7DDFB08346D1C6AE18FA158460D
:103C700020F0A7F988B922AAAFF608410020FCF786
:103C8000A0FC834643F203102080221D89A15846E0
:103C9000FCF7C6FB08346D1C53E188A1584620F0A0
:103CA00090F980B922AAAFF634410020FCF789FCD4
:103CB000834643F2041020804FF0FF3060600834E8
:103CC0006D1C3EE149E17FA1584620F07AF990B998
:103CD00022AAAFF660410020FCF773FC834643F252
:103CE00005102080221DAFF648415846FCF798FB8E
:103CF00008346D1C25E175A1584620F062F990B991
:103D000022AAAFF690410020FCF75BFC834643F209
:103D100006102080221DAFF678415846FCF780FB44
:103D200008346D1C0DE16BA1584620F04AF990B99A
:103D300022AAAFF6C0410020FCF743FC834643F2C1
:103D400007102080221DAFF6A8415846FCF768FBFB
:103D500008346D1CF5E061A1584620F032F990B9A5
:103D600022AAAFF6F0410020FCF72BFC834643F279
:103D700008102080221DAFF6D8415846FCF750FBB2
:103D800008346D1CDDE057A1584620F01AF988BBB5
:103D900022AAAFF620510020FCF713FC834653A162
:103DA000584620F00EF938B943F20910208000205F
:103DB000606008346D1CC4E04EA1584620F001F943
:103DC00038B943F2091020800120606008346D1C6E
:103DD000B7E04AA1584620F0F4F838B943F2091088
:103DE00020800220606008346D1CAAE00120707001
:103DF00028462CE4FFE744A1584620F0E2F8F8B941
:103E000022AAAFF690510020FCF7DBFB834641A1CC
:103E1000584620F0D6F838B943F20A102080002026
:103E2000606008346D1C8CE03BA1584620F0C9F856
:103E300038B943F20A1020800120606008346D1CFC
:103E40007FE06DE0736563746F726E756D000000E6
:103E500066756E0079786E756D00000079636E7519
:103E60006D000000796B6E756D000000796D6E75E8
:103E70006D000000736A6E756D000000696E6670FB
:103E80006F696E74000000007978000023696E6429
:103E9000657800002373656E6400000025347800A7
:103EA00023636F6D6D616E640000000023616464C4
:103EB000720000003078257800000000236E616DEC
:103EC0006500000023736563746F720023696E667A
:103ED000000000002366756E00000000236173641B
:103EE00075000000236C6576656C00006E6F726D66
:103EF000616C0000616C61726D0000006163636958
:103F000064656E74000000002366756E6374696FEB
:103F10006E000000736574007265736574000000C4
:103F2000FDA1584620F04DF838B943F20A10208020
:103F30000220606008346D1C03E001207070284688
:103F4000B2E422AAAFF6D4610020FCF73AFB834624
:103F5000BBF1000F7FF443AEFCE2F0A1584620F025
:103F600030F800287ED122AAAFF6F861FCF729FBD1
:103F7000834600BFAFF2EC01584620F022F890B91A
:103F800022AAAFF610710020FCF71BFB83464FF40A
:103F900048502080221DAFF6F8615846FCF740FAE1
:103FA00008346D1C41E1AFF21411584620F009F8B5
:103FB00090B922AAAFF644710020FCF702FB8346B9
:103FC00043F201202080221DAFF230115846FCF749
:103FD00027FA08346D1C28E1AFF23C1158461FF057
:103FE000F0FF90B922AAAFF674710020FCF7E9FA4D
:103FF000834643F202202080221DAFF65C715846B2
:10400000FCF70EFA08346D1C0FE1AFF26011584650
:104010001FF0D7FF90B922AAAFF6A8710020FCF7D5
:10402000D0FA834643F203202080221DAFF27C1198
:104030005846FCF7F5F908346D1CF6E0AFF2841130
:1040400058461FF0BEFF88B922AAAFF6D8710020EB
:10405000FCF7B7FA834643F2042020804FF0FF308C
:10406000606000E0ECE008346D1CDEE0AFF2AC1103
:1040700058461FF0A6FF88B922AAA9490020FCF7DC
:10408000A0FA834643F205202080221DAFF6F0718E
:104090005846FCF7C5F908346D1CC6E0AFF2D411E0
:1040A00058461FF08EFF80B922AA9D490020FCF7D8
:1040B00088FA834643F206202080221D99A15846A3
:1040C000FCF7AEF908346D1CAFE0AFF2F8115846BA
:1040D0001FF077FF80B922AA91490020FCF771FAFE
:1040E000834643F207202080221D8EA15846FCF70C
:1040F00097F908346D1C98E0AFF2202158461FF064
:1041000060FF80B922AA86490020FCF75AFA83464C
:1041100043F208202080221D82A15846FCF780F936
:1041200008346D1C81E080A158461FF04AFF80B919
:1041300022AA7B490020FCF744FA834643F2092077
:104140002080221D77A15846FCF76AF908346D1CBF
:104150006BE077A158461FF034FF80B922AA70495E
:104160000020FCF72EFA834643F20A202080221D0D
:104170006CA15846FCF754F908346D1C55E06EA14B
:1041800058461FF01EFF28BB22AA65490020FCF7F5
:1041900018FA8346AFF6744158461FF012FF38B93B
:1041A00043F20B2020800020606008346D1C3CE04E
:1041B000AFF68C4158461FF004FF38B943F20B208C
:1041C00020800120606008346D1C2EE0012070709A
:1041D00028460EE65AA158461FF0F3FE80B922AADF
:1041E0004F490020FCF7EDF9834643F20C20208074
:1041F000221D4CA15846FCF713F908346D1C14E03D
:1042000051A158461FF0DDFE78B922AA444900208A
:10421000FCF7D7F9834643F20D202080221D41A1EF
:104220005846FCF7FDF808346D1C22AA3C490020D2
:10423000FCF7C7F98346BBF1000F7FF49BAEF4E3B4
:1042400043A158461FF0BDFE002863D122AA34497D
:10425000FCF7B7F9834600BFAFF2D03158461FF0E4
:10426000B0FE80B922AA2E490020FCF7AAF98346A5
:104270004FF44C502080221D2AA15846FCF7D0F85C
:1042800008346D1C5CE1AFF2F43158461FF099FE22
:1042900088B922AA22490020FCF793F9834643F209
:1042A00001302080221DAFF20C415846FCF7B8F8CF
:1042B00008346D1C44E1AFF2184158461FF081FEEE
:1042C00080B922AA16490020FCF77BF9834643F205
:1042D00002302080221D13A15846FCF7A1F80834B3
:1042E0006D1C2DE1AFF23C4158461FF06AFE90B9BB
:1042F00022AA0B490020FCF764F9834643F20330FD
:104300002080221DAFF254415846FCF789F808344A
:104310006D1C15E11FE11DE0616C6C00796300000C
:104320007430000025640000236761696E0000009E
:1043300023736C696D000000237368696674000064
:10434000236F6666736574002372616E6765000093
:10435000796B0000AFF29C4158461FF032FE70B9F5
:1043600022AAFE490020FCF72CF9834643F20430D0
:1043700020804FF0FF30606008346D1CE0E0AFF249
:10438000BC4158461FF01DFE88B922AAF3490020FF
:10439000FCF717F9834643F205302080221DAFF267
:1043A0007C015846FCF73CF808346D1CC8E0AFF2BD
:1043B000E44158461FF005FE88B922AAE7490020CB
:1043C000FCF7FFF8834643F206302080221DAFF24F
:1043D000AC015846FCF724F808346D1CB0E0AFF28D
:1043E0000C5158461FF0EDFD88B922AADB49002088
:1043F000FCF7E7F8834643F207302080221DAFF236
:10440000DC015846FCF70CF808346D1C98E0AFF25C
:10441000345158461FF0D5FD88B922AACF49002053
:10442000FCF7CFF8834643F208302080221DAFF21C
:104430000C115846FBF7F4FF08346D1C80E0C8A14E
:1044400058461FF0BEFD28BB22AAC4490020FCF735
:10445000B8F88346AFF6347158461FF0B2FD38B94C
:1044600043F2093020800020606008346D1C67E052
:10447000AFF64C7158461FF0A4FD38B943F209302D
:1044800020800120606008346D1C59E001207070AC
:104490002846AEE4B4A158461FF093FD28BB22AADB
:1044A000AE490020FCF78DF88346AFF68871584678
:1044B0001FF087FD38B943F20A3020800020606089
:1044C00008346D1C3CE0AFF6A07158461FF079FD32
:1044D00038B943F20A3020800120606008346D1C36
:1044E0002EE001207070284683E4A1A158461FF0F9
:1044F00068FD00BB22AA99490020FCF762F88346B8
:10450000AFF6E07158461FF05CFD38B943F20B304E
:1045100020800020606008346D1C11E0AFF6F87157
:1045200058461FF04EFD38B943F20B302080012071
:10453000606008346D1C03E001207070284658E468
:1045400022AA86490020FCF73CF88346BBF1000F05
:104550007FF482AE69E28AA158461FF032FDB0BBFB
:1045600022AA7E490020FCF72CF8834600BFAFF258
:10457000E46158461FF025FD88B922AA774900203A
:10458000FCF71FF883464FF450502080221DAFF2F5
:104590006C215846FBF744FF08346D1CBCE0AFF2B9
:1045A0000C7158461FF00DFD90B922AA6B490020EE
:1045B000FCF707F8834643F201402080221DAFF24A
:1045C00024715846FBF72CFF08346D1CA4E0AEE0C4
:1045D000AFF2347158461FF0F4FC88B922AA5F4943
:1045E0000020FBF7EEFF834643F202402080221DAD
:1045F000AFF2D0215846FBF713FF08346D1C8BE057
:10460000AFF2587158461FF0DCFC88B922AA534912
:104610000020FBF7D6FF834643F203402080221D93
:10462000AFF270715846FBF7FBFE08346D1C73E067
:10463000AFF2787158461FF0C4FC70B922AA4749FE
:104640000020FBF7BEFF834643F2044020804FF07A
:10465000FF30606008346D1C5EE0AFF29871584620
:104660001FF0AFFC88B922AA3C490020FBF7A9FF44
:10467000834643F205402080221DAFF25831584650
:10468000FBF7CEFE08346D1C46E0AFF2C071584611
:104690001FF097FC88B922AA30490020FBF791FF50
:1046A000834643F206402080221DAFF288315846EF
:1046B000FBF7B6FE08346D1C2EE0AFF2E8715846E9
:1046C0001FF07FFC88B922AA24490020FBF779FF5C
:1046D000834643F207402080221DAFF2B83158468E
:1046E000FBF79EFE08346D1C16E0AFF6100158462D
:1046F0001FF067FC80B922AA18490020FBF761FF70
:10470000834643F208402080221DAFF2E83158462C
:10471000FBF786FE08346D1C22AA10490020FBF727
:1047200050FF8346BBF1000F7FF421AF7DE115A15F
:1047300058461FF046FC00287DD122AA0749FBF706
:1047400040FF834600BFAFF6BC0158461FF039FC5E
:1047500048BB22AA0149002016E000007430000086
:1047600023646972656374002372657475726E00E8
:1047700023746F74616C72657475726E0000000052
:10478000796D0000736A0000FBF71BFF83464FF44E
:1047900054502080221DAFF274415846FBF740FE72
:1047A00008346D1C32E1AFF6141158461FF009FCB5
:1047B00088B922AAF7490020FBF703FF834643F29A
:1047C00001502080221DAFF62C115846FBF728FE21
:1047D00008346D1C1AE1AFF6381158461FF0F1FB92
:1047E00088B922AAEB490020FBF7EBFE834643F28F
:1047F00002502080221DAFF2D4415846FBF710FE34
:1048000008346D1C02E1AFF65C1158461FF0D9FB6D
:1048100090B922AADF490020FBF7D3FE834643F27A
:1048200003502080221DAFF674115846FBF7F8FDA7
:1048300008346D1CEAE0F4E0AFF6801158461FF032
:10484000C0FB70B922AAD3490020FBF7BAFE834609
:1048500043F2045020804FF0FF30606008346D1C3C
:10486000D4E0AFF6A01158461FF0ABFB88B922AADE
:10487000C8490020FBF7A5FE834643F2055020807F
:10488000221DAFF260515846FBF7CAFD08346D1C7B
:10489000BCE0AFF6C81158461FF093FB88B922AAB6
:1048A000BC490020FBF78DFE834643F20650208072
:1048B000221DAFF290515846FBF7B2FD08346D1C33
:1048C000A4E0AFF6F01158461FF07BFB88B922AA8E
:1048D000B0490020FBF775FE834643F20750208065
:1048E000221DAFF2C0515846FBF79AFD08346D1CEB
:1048F0008CE0AFF6182158461FF063FB88B922AA56
:10490000A4490020FBF75DFE834643F20850208057
:10491000221DAFF2F0515846FBF782FD08346D1CA2
:1049200074E0AFF6402158461FF04BFB78BB22AA3B
:1049300098490020FBF745FE8346AFF650215846C4
:104940001FF03FFB38B943F209502080002060601F
:1049500008346D1C5AE0AFF6642158461FF031FB55
:1049600038B943F2095020800120606008346D1C82
:104970004CE0AFF6782158461FF023FB40B943F2D4
:10498000095020800220606008346D1C3EE003E086
:104990000120707028461CE4AFF6942158461FF0A1
:1049A00010FB00BB22AA7B490020FBF70AFE8346CE
:1049B000AFF2706158461FF004FB38B943F20A5059
:1049C00020800020606008346D1C1FE0AFF6B82125
:1049D00058461FF0F6FA38B943F20A5020800120F9
:1049E000606008346D1C11E0AFF2D46158461FF0CE
:1049F000E8FA38B943F20A50208002206060083497
:104A00006D1C03E001207070284642E522AA61492E
:104A10000020FBF7D6FD8346BBF1000F7FF493AE79
:104A200003E001207070284633E509E022AA5949C5
:104A30000020FBF7C6FD8346BBF1000F7EF419AFE3
:104A400000BF48E30420199008EB070022AA51494F
:104A5000FBF7B7FD834600BF4F4958461FF0B1FA38
:104A6000A0B922AA4B490020FBF7ABFD83464FF4C7
:104A700080402080221DAFF254715846FBF7D0FCD5
:104A800020794649087008346D1C19E342490C31FD
:104A900058461FF096FAF8B922AA3E490020FBF7C3
:104AA00090FD83461EAAAFF284715846FBF7B8FC0E
:104AB0001E9810B11E98102803DD01207070284642
:104AC000E7E444F2010020801E98606020793349B9
:104AD000487008346D1CF3E22E49143158461FF01B
:104AE00070FA38BB22AA2B490020FBF76AFD8346E7
:104AF0002949103158461FF064FA28B944F20200DF
:104B00002080002060600FE02349183158461FF0D4
:104B100058FA28B944F2020020800120606003E0C6
:104B2000012070702846B4E420791C49887008344C
:104B30006D1CC5E21849203158461FF042FA40BBAF
:104B400022AA14490020FBF73CFD834612492C3170
:104B500058461FF036FA28B944F20300208000209E
:104B6000606025E00C49343158461FF02AFA28B914
:104B700044F2030020800120606019E008A158463B
:104B80001FF01FFA80B944F2030020800220606009
:104B90000EE013E074300000C0340000D029FF1F85
:104BA000696563313034000001207070284670E47C
:104BB0002079FE49C87008346D1C81E2FCA158467A
:104BC0001FF0FFF928BB22AAFB490020FBF7F9FCE4
:104BD0008346FAA158461FF0F4F928B944F20400BC
:104BE0002080002060600EE0F54958461FF0E9F98A
:104BF00028B944F2040020800120606003E0012015
:104C00007070284645E42079E849087108346D1C25
:104C100056E2EC4958461FF0D4F9A0BB22AAE64957
:104C20000020FBF7CEFC83461AA91BA81CAB1DAACB
:104C3000CDE90001E349091D5846FBF7F1FB1A983D
:104C4000FF2808DC1B98FF2805DC1C98FF2802DCE5
:104C50001D98FF2803DD01207070284619E444F2F6
:104C6000050020801D9800061C9940EA01401B9910
:104C700040EA01201A9908436060CC496068886066
:104C800008346D1C1CE2FFE7CE49143158461FF072
:104C900098F9A0B922AAC8490020FBF792FC8346E4
:104CA00044F206002080221DAFF688115846FBF71B
:104CB000B7FB2079BD49087308346D1C00E2C14977
:104CC0001C3158461FF07DF988BB22AABA49002042
:104CD000FBF777FC83461AA91BA81CAB1DAACDE9DC
:104CE0000001B849091D5846FBF79AFB1A98FF289E
:104CF00008DC1B98FF2805DC1C98FF2802DC1D98A7
:104D0000FF2803DD01207070284618E444F20700F4
:104D100020801D9800061C9940EA01401B9940EA3A
:104D200001201A990843606008346D1CC8E1FFE750
:104D3000A449203158461FF044F988B922AA9E4957
:104D40000020FBF73EFC834644F208002080221D31
:104D5000AFF630215846FBF763FB08346D1CAFE11A
:104D600099A158461FF02DF9A0B922AA9249002016
:104D7000FBF727FC834644F209002080221DAFF692
:104D80005C215846FBF74CFBA0888849C881083451
:104D90006D1C95E18FA158461FF013F9A0B922AA06
:104DA00085490020FBF70DFC834644F20A00208071
:104DB000221DAFF690215846FBF732FBA0887B49B5
:104DC000088208346D1C7BE185A158461FF0F9F874
:104DD000A0B922AA78490020FBF7F3FB834644F2EE
:104DE0000B002080221DAFF6C4215846FBF718FBAC
:104DF000A0886E49488208346D1C61E17BA1584649
:104E00001FF0DFF828BB22AA6B490020FBF7D9FB73
:104E100083466AA158461FF0D4F828B944F20C0022
:104E20002080002060600EE0654958461FF0C9F8F8
:104E300028B944F20C0020800120606003E00120CA
:104E400070702846A7E520795849087508346D1C0C
:104E500036E169A158461FF0B4F828BB22AA56498A
:104E60000020FBF7AEFB834654A158461FF0A9F87B
:104E700028B944F20D002080002060600EE0504907
:104E800058461FF09EF828B944F20D0020800120FA
:104E9000606003E00120707028467CE5207943497A
:104EA000487508346D1C0BE157A158461FF089F86E
:104EB00080BB22AA40490020FBF783FB834655A113
:104EC00058461FF07EF828B944F20E0020800020DA
:104ED000606019E051A158461FF073F828B944F2F8
:104EE0000E002080012060600EE04FA158461FF0A8
:104EF00068F828B944F20E0020800220606003E0C8
:104F000001207070284646E52079284988750834C4
:104F10006D1CD5E0FFE746A158461FF052F8A0B936
:104F200022AA25490020FBF74CFB834644F20F00E0
:104F30002080221DAFF614415846FBF771FA207904
:104F40001A49C87508346D1CBAE03DA158461FF0D7
:104F500038F8A0B922AA18490020FBF732FB834693
:104F600044F210002080221DAFF648415846FBF75E
:104F700057FA20790D49087608346D1CA0E034A159
:104F800058461FF01EF878B922AA0B490020FBF7FB
:104F900018FB834609A158461FF013F828B944F2BC
:104FA0001100208000205BE071E05BE0D029FF1F52
:104FB0006461756C6E657400743000006E6F000083
:104FC00028350000A43900007265637674696D6548
:104FD0006F75740073656E6474696D656F757400C8
:104FE000796373656E646379636C6500736F65657F
:104FF0006E61626C65000000736F65726573657445
:10500000656E61626C650000796373656E64666CE1
:1050100061670000696E743136000000696E74319A
:10502000366D617800000000666C6F617433320089
:1050300079786D617873656E646E756D000000003F
:1050400079636D617873656E646E756D0000000044
:1050500074696D696E6773656C6563740000000048
:1050600060600EE0264958461EF0ABFF28B944F2B6
:10507000110020800120606003E00120707028464C
:1050800089E420791F49487608346D1C18E01EA178
:1050900058461EF096FF98B922AA1E490020FBF739
:1050A00090FA834644F212002080221DAFF68C5104
:1050B0005846FBF7B5F9A0881249488308346D1C9F
:1050C00022AA14490020FBF77CFA8346BBF1000FAB
:1050D0007FF4C2AC00BF00BF03E00120707000206D
:1050E00059E400BFDDE91F01401A1F902098804459
:1050F00000BF1F9800287DF4B7AD28464BE40000A0
:1051000028350000D029FF1F796B74696D656F75B4
:105110007400000074300000014600207047000059
:1051200000B50020084908600A200DF0DFFC0120CE
:105130000649C1F818020A200DF0D8FC00200249E7
:10514000091F086000BD00001C82664200806642A4
:1051500000B50120084908600A200DF0C7FC0120B5
:105160000649C1F818020A200DF0C0FC00200249CF
:10517000091F086000BD00001C8266420080664274
:1051800010B50023002013490860002414E000201B
:10519000114908600A200DF0A9FC01200F49C1F84F
:1051A00018025806030E0E4800681843C3B20A20BE
:1051B0000DF09CFC601CC4B2082CE8DB0020064902
:1051C000086005200DF092FC01200649C1F81C0280
:1051D000184610BD1C426642188266420080664234
:1051E0001C626642004066422DE9F04304460D46CB
:1051F0001646EFB2C5F3072900F028F8A02000F00A
:1052000063F8484600F060F8384600F05DF800F0BA
:105210001DF8A12000F058F84FF000080AE0FFF751
:10522000AFFF0746FFF77CFF04F8017B08F10100A0
:1052300000F0FF08701E4045F1DCFFF7A1FF207071
:10524000FFF786FF00F020F8BDE8F08300B50120ED
:105250000A4908600A49C1F81C020A4908600A2084
:105260000DF044FC00200649C1F81C020A200DF094
:105270003DFC00200349086000BD00001C4266425E
:10528000008066421882664200B501200B49086022
:1052900000200B49C1F81C020A200DF027FC012058
:1052A000084908600A200DF021FC01200449C1F8DA
:1052B0001C020A200DF01AFC00BD00001C426642D0
:1052C000008066421882664230B503464FF4FA7594
:1052D00001202449086000241CE003F0800080289D
:1052E00003D101202049086002E000201E49086027
:1052F0000A200DF0FBFB01201B49091F08600A2052
:105300000DF0F4FB00201949C1F818025806030EED
:10531000601C84B2082CE0DB0020124908600A20DF
:105320000DF0E4FB01201149C1F818020A200DF02C
:10533000DDFB05E0281EA5F101018DB200D104E0DE
:105340000B4800680128F5D000BF00200649091F5E
:1053500008600A200DF0CAFB01200649C1F81C02B2
:1053600030BD00001C4266421C82664200806642DC
:105370001C626642004066422DE9F04304460D4639
:10538000164604F0FF09C4F30728FFF75FFFA020CB
:10539000FFF79AFF4046FFF797FF4846FFF794FF55
:1053A000002705E015F8010BFFF78EFF781CC7B248
:1053B000B742F7DBFFF768FFBDE8F08310B51BF0DD
:1053C0003DFAFDF7E5FB1BF051FA10BD10B51BF0DF
:1053D00035FAFDF7DDFB1BF049FA10BD4FF4F8403C
:1053E0002249086140F2FF70C8614FF6F0704860D2
:1053F0004FF4F870886001201D4908601D49C1F80C
:1054000084021C498C3108601B4908614004086310
:1054100040200865002019490860012018490860EB
:1054200017491439086016491C3908601449383185
:105430000860091F0860091F0860091F0860091F2C
:105440000860091F0860091F0860091F0860091F1C
:105450000860091F08600A4924390860091F0860AC
:105460001320054981F80003704700000030034015
:10547000800266420000664200F003402836034086
:1054800028C5664200B5FFF7E1FED020FFF71CFFFC
:105490000920FFF719FF0A20FFF716FF9E20FFF7EC
:1054A00013FFFFF7F1FEFFF7D1FED020FFF70CFF4F
:1054B0000B20FFF709FF0320FFF706FFFFF7E4FECD
:1054C00000BD1CB5044600200190FF200090207A0A
:1054D00001AA694601F008F89DF8040048B19DF85A
:1054E000040084F848009DF900104920015500206F
:1054F0001CBD4FF0FF30FBE700B5FFF7A7FED02043
:10550000FFF7E2FE0920FFF7DFFE0A20FFF7DCFECF
:10551000FFF7BAFE00BD000010B51BF08FF903487D
:105520001AF0EAFC1BF0A2F910BD00009C33FF1F2B
:1055300010B51BF083F903481AF082FD1BF096F9B1
:1055400010BD00001C38FF1F10B51BF077F9034891
:105550001AF01AFE1BF08AF910BD00009C3CFF1FD8
:1055600010B51BF06BF903481AF0B2FE1BF07EF980
:1055700010BD00001C41FF1F10B51BF05FF9034870
:105580001AF04AFF1BF072F910BD00009C45FF1F86
:1055900010B51BF053F903481AF0E2FF1BF066F94F
:1055A00010BD00001C4AFF1F10B51BF047F903484F
:1055B0001BF07AF81BF05AF910BD00009C4EFF1F3B
:1055C00000F01F0201219140024A430942F82310D2
:1055D0007047000080E100E000F01F0201219140CF
:1055E0004209920002F1E022C2F80011704700F077
:1055F0001F02012191404209920002F1E022C2F80B
:1056000000117047F0B503460C4603F00701C1F1E5
:105610000700042801D9042001E0C1F10700064673
:10562000081D072801D2002000E0C81E0546012001
:10563000B040401E2040A8400127AF407F1E1740C9
:105640003843F0BDF0B503460C4603F00701C1F145
:105650000700042801D9042001E0C1F10700064633
:10566000081D072801D2002000E0C81E05460120C1
:10567000B040401E2040A8400127AF407F1E174089
:105680003843F0BD02480068C0F3022070470000B4
:105690000CED00E002480068C0F3022070470000F3
:1056A0000CED00E010B5002807DA0A07140E054AD1
:1056B00000F00F031B1FD45403E00A07130E024A25
:1056C000135410BD18ED00E000E400E010B5002810
:1056D00007DA0A07140E054A00F00F031B1FD45403
:1056E00003E00A07130E024A135410BD18ED00E040
:1056F00000E400E010B5002807DA0A07140E054A96
:1057000000F00F031B1FD45403E00A07130E024AD4
:10571000135410BD18ED00E000E400E0BFF34F8F1C
:105720000648006800F4E06005490843001D03498D
:105730000860BFF34F8F00BFFEE700000CED00E0F4
:105740000000FA05BFF34F8F0648006800F4E060E0
:1057500005490843001D03490860BFF34F8F00BF90
:10576000FEE700000CED00E00000FA050CB505496D
:105770000A680092496801910099016001994160AD
:105780000CBD00009602FF1F30B503460024002127
:105790002BE0022901D1481CC1B200221BE001EB21
:1057A0008100144D05EBC0001330805C984210D18D
:1057B0000802C1B201EB01200F4D05EB800002EBA6
:1057C000420510F8350008B9FF2030BD41EA02005B
:1057D000FBE7501CC2B201EB8100064D05EBC00097
:1057E000807C9042DBDC481CC1B20729D1DDFF2060
:1057F000EBE700005E00FF1F4C07FF1F10B50246DD
:105800000C2A01DB002010BD002002EB4203024CF9
:1058100044F823000120F6E7182BFF1F10B50246BD
:105820000C2A01DB002010BD02EB4200104B43F8B4
:1058300020101048007800F07F0002EB42030C4C6F
:1058400004EB830318710C48007800F07F0002EB32
:10585000420304EB830358710848007800F07F008E
:1058600002EB420304EB830398710120DBE70000A5
:10587000182BFF1F9F02FF1FA102FF1FA002FF1F87
:105880002DE9F0470646884691464846FFF77CFFDB
:1058900000F0FF0ABAF1FF0F02D10020BDE8F08747
:1058A00000270AF0FF0507BB7C4800EB4520008875
:1058B000552807D0794800EB45200088882801D07A
:1058C000781EEBE7022408E0754800EB452010F84D
:1058D000140006F8010B601CC4B2714800EB4520AF
:1058E0004088801CA042EFDCD1E0012F20D16D4820
:1058F00000EB45200088552807D06A4800EB45207A
:105900000088882801D0B81EC8E7022408E066484D
:1059100000EB452010F8140006F8010B601CC4B21F
:10592000614800EB45204088801CA042EFDCAEE0DF
:10593000032F20D15D4800EB45200088552807D073
:105940005A4800EB45200088882801D0381FA5E779
:10595000022408E0564800EB452010F8140006F831
:10596000010B601CC4B2524800EB45204088801CEB
:10597000A042EFDC8BE0042F20D14E4800EB452005
:105980000088552807D04B4800EB45200088882820
:1059900001D0781F82E7022408E0474800EB452049
:1059A00010F8140006F8010B601CC4B2424800EB6A
:1059B00045204088801CA042EFDC68E0052F20D104
:1059C0003E4800EB45200088552807D03B4800EBB7
:1059D00045200088882801D0B81F5FE7022408E02E
:1059E000374800EB452010F8140006F8010B601C46
:1059F000C4B2334800EB45204088801CA042EFDC55
:105A000045E0062F20D12F4800EB4520008855287F
:105A100007D02C4800EB45200088882801D0F81FCB
:105A20003CE7022408E0284800EB452010F8140069
:105A300006F8010B601CC4B2234800EB45204088E7
:105A4000801CA042EFDC22E0072F20D11F4800EB92
:105A500045200088552808D01C4800EB45200088C8
:105A6000882802D04FF0FF3018E7022408E01848D9
:105A700000EB452010F8140006F8010B601CC4B2BE
:105A8000134800EB45204088801CA042EFDC601EDC
:105A9000C0B288F8000000BF00E70000D0570064E3
:105AA00000280064D0F70064D0CF0064A09F016498
:105AB000A077016470470264701F026440EF0264C3
:105AC00040C7026410970364106F0364E03E0464EF
:105AD000E0160464FE49097808296AD2DFE801F07B
